{
  "contractName": "Whitelist",
  "abi": [
    {
      "inputs": [],
      "name": "merkleRoot",
      "outputs": [
        {
          "internalType": "bytes32",
          "name": "",
          "type": "bytes32"
        }
      ],
      "stateMutability": "view",
      "type": "function"
    },
    {
      "inputs": [
        {
          "internalType": "address",
          "name": "",
          "type": "address"
        }
      ],
      "name": "whitelist",
      "outputs": [
        {
          "internalType": "bool",
          "name": "",
          "type": "bool"
        }
      ],
      "stateMutability": "view",
      "type": "function"
    },
    {
      "inputs": [
        {
          "internalType": "bytes32[]",
          "name": "_proofs",
          "type": "bytes32[]"
        }
      ],
      "name": "whitelistBulk",
      "outputs": [],
      "stateMutability": "nonpayable",
      "type": "function"
    },
    {
      "inputs": [
        {
          "internalType": "bytes32",
          "name": "_merkleRoot",
          "type": "bytes32"
        }
      ],
      "name": "setMerkleRoot",
      "outputs": [],
      "stateMutability": "nonpayable",
      "type": "function"
    }
  ],
  "bytecode": "0x608060405234801561001057600080fd5b506108e2806100206000396000f3fe608060405234801561001057600080fd5b506004361061004c5760003560e01c80632eb4a7ab14610051578063459ee8371461006f5780637cb647591461008b5780639b19251a146100a7575b600080fd5b6100596100d7565b6040516100669190610353565b60405180910390f35b61008960048036038101906100849190610507565b6100dd565b005b6100a560048036038101906100a09190610550565b6101ba565b005b6100c160048036038101906100bc91906105db565b6101c4565b6040516100ce9190610623565b60405180910390f35b60005481565b60005b81518110156101b65761010d8282815181106100ff576100fe61063e565b5b6020026020010151336101e4565b61014c576040517f08c379a0000000000000000000000000000000000000000000000000000000008152600401610143906106ca565b60405180910390fd5b60018060003373ffffffffffffffffffffffffffffffffffffffff1673ffffffffffffffffffffffffffffffffffffffff16815260200190815260200160002060006101000a81548160ff02191690831515021790555080806101ae90610723565b9150506100e0565b5050565b8060008190555050565b60016020528060005260406000206000915054906101000a900460ff1681565b600080826040516020016101f891906107b3565b604051602081830303815290604052805190602001209050600081905060005b602081101561032c57600060088261023091906107fd565b8760088461023e919061082e565b6020811061024f5761024e61063e565b5b1a60f81b7effffffffffffffffffffffffffffffffffffffffffffffffffffffffffffff1916901c90506000600160f81b905060008183169050600160f81b817effffffffffffffffffffffffffffffffffffffffffffffffffffffffffffff1916036102e857846000546040516020016102cb929190610880565b604051602081830303815290604052805190602001209450610316565b600054856040516020016102fd929190610880565b6040516020818303038152906040528051906020012094505b505050808061032490610723565b915050610218565b508481149250505092915050565b6000819050919050565b61034d8161033a565b82525050565b60006020820190506103686000830184610344565b92915050565b6000604051905090565b600080fd5b600080fd5b600080fd5b6000601f19601f8301169050919050565b7f4e487b7100000000000000000000000000000000000000000000000000000000600052604160045260246000fd5b6103d082610387565b810181811067ffffffffffffffff821117156103ef576103ee610398565b5b80604052505050565b600061040261036e565b905061040e82826103c7565b919050565b600067ffffffffffffffff82111561042e5761042d610398565b5b602082029050602081019050919050565b600080fd5b61044d8161033a565b811461045857600080fd5b50565b60008135905061046a81610444565b92915050565b600061048361047e84610413565b6103f8565b905080838252602082019050602084028301858111156104a6576104a561043f565b5b835b818110156104cf57806104bb888261045b565b8452602084019350506020810190506104a8565b5050509392505050565b600082601f8301126104ee576104ed610382565b5b81356104fe848260208601610470565b91505092915050565b60006020828403121561051d5761051c610378565b5b600082013567ffffffffffffffff81111561053b5761053a61037d565b5b610547848285016104d9565b91505092915050565b60006020828403121561056657610565610378565b5b60006105748482850161045b565b91505092915050565b600073ffffffffffffffffffffffffffffffffffffffff82169050919050565b60006105a88261057d565b9050919050565b6105b88161059d565b81146105c357600080fd5b50565b6000813590506105d5816105af565b92915050565b6000602082840312156105f1576105f0610378565b5b60006105ff848285016105c6565b91505092915050565b60008115159050919050565b61061d81610608565b82525050565b60006020820190506106386000830184610614565b92915050565b7f4e487b7100000000000000000000000000000000000000000000000000000000600052603260045260246000fd5b600082825260208201905092915050565b7f496e76616c69642070726f6f6600000000000000000000000000000000000000600082015250565b60006106b4600d8361066d565b91506106bf8261067e565b602082019050919050565b600060208201905081810360008301526106e3816106a7565b9050919050565b7f4e487b7100000000000000000000000000000000000000000000000000000000600052601160045260246000fd5b6000819050919050565b600061072e82610719565b91507fffffffffffffffffffffffffffffffffffffffffffffffffffffffffffffffff82036107605761075f6106ea565b5b600182019050919050565b60008160601b9050919050565b60006107838261076b565b9050919050565b600061079582610778565b9050919050565b6107ad6107a88261059d565b61078a565b82525050565b60006107bf828461079c565b60148201915081905092915050565b7f4e487b7100000000000000000000000000000000000000000000000000000000600052601260045260246000fd5b600061080882610719565b915061081383610719565b925082610823576108226107ce565b5b828206905092915050565b600061083982610719565b915061084483610719565b925082610854576108536107ce565b5b828204905092915050565b6000819050919050565b61087a6108758261033a565b61085f565b82525050565b600061088c8285610869565b60208201915061089c8284610869565b602082019150819050939250505056fea264697066735822122092edc1905a5301e5b5cd7d19485fd51396b7a3734477c0474fe220eb5edbe3c364736f6c63430008120033",
  "immutableReferences": {},
  "source": "pragma solidity ^0.8.0;\n\ncontract Whitelist {\n    bytes32 public merkleRoot;\n\n    mapping (address => bool) public whitelist;\n\n    function whitelistBulk(bytes32[] memory _proofs) public {\n        for (uint256 i = 0; i < _proofs.length; i++) {\n            require(verifyProof(_proofs[i], msg.sender), \"Invalid proof\");\n            whitelist[msg.sender] = true;\n        }\n    }\n\n    function verifyProof(bytes32 _proof, address _address) internal view returns (bool) {\n        bytes32 leaf = keccak256(abi.encodePacked(_address));\n        bytes32 computedHash = leaf;\n\n        for (uint256 i = 0; i < 32; i++) {\n            bytes1 value = _proof[i / 8] >> (i % 8);\n            bytes1 mask = 0x01;\n            bytes1 result = value & mask;\n            if (result == 0x01) {\n                computedHash = keccak256(abi.encodePacked(computedHash, merkleRoot));\n            } else {\n                computedHash = keccak256(abi.encodePacked(merkleRoot, computedHash));\n            }\n        }\n\n        return computedHash == _proof;\n    }\n\n    function setMerkleRoot(bytes32 _merkleRoot) external {\n        merkleRoot = _merkleRoot;\n    }\n}\n",
  "sourcePath": "/home/savan/Savan/playground/Merkel Tree/contracts/whitelisting.sol",
  "compiler": {
    "name": "solc",
    "version": "0.8.18+commit.87f61d96.Emscripten.clang"
  },
  "schemaVersion": "3.4.12",
  "updatedAt": "2023-04-21T04:12:14.422Z",
  "devdoc": {
    "kind": "dev",
    "methods": {},
    "version": 1
  },
  "userdoc": {
    "kind": "user",
    "methods": {},
    "version": 1
  }
}